:020000021000EC
:10B0000000400020BDE30100FDE30100FFE301007B
:10B010000000000000000000000000000000000030
:10B0200000000000000000000000000001E401003A
:10B03000000000000000000003E4010005E401003E
:10B0400007E4010007E40100E9E7010007E401006B
:10B0500007E401000000000007E4010007E401002C
:10B0600007E4010007E4010007E4010007E4010030
:10B0700007E4010007E4010007E4010007E4010020
:10B0800007E401007DEA010007E4010007E4010094
:10B0900007E4010007E4010007E4010007E4010000
:10B0A00007E4010007E401000000000000000000C8
:10B0B0000000000000000000000000000000000090
:10B0C00010B5064C2378002B07D1054B002B02D07E
:10B0D000044800E000BF0123237010BD6425002058
:10B0E000000000007C4D020008B5084B002B03D087
:10B0F0000748084900E000BF07480368002B03D059
:10B10000064B002B00D0984708BDC0460000000049
:10B110007C4D020068250020602500200000000012
:10B12000164B002B00D1144B9D46402292029A1AD6
:10B13000924600218B460F461348144A121A00F01B
:10B140005FF80F4B002B00D098470E4B002B00D020
:10B1500098470020002104000D000D48002802D06F
:10B160000C4800F033F900F027F82000290003F024
:10B17000CDFC00F011F8C04600000800004000209F
:10B180000000000000000000642500203C28002092
:10B19000CDB30100DDB3010010B50021041C00F0A7
:10B1A00089F8044B1868C36B002B00D09847201C0B
:10B1B00000F08CF9383A020070B50D4E0D4D0024A8
:10B1C000AD1BAD1005D0A300F35801349847A5423C
:10B1D000F9D108F023FC084E084D0024AD1BAD103A
:10B1E00005D0A300F35801349847A542F9D170BDAA
:10B1F0004825002048250020482500205C25002007
:10B20000F0B5830746D0541E002A42D0CEB2031CAC
:10B21000032503E0621E002C3BD0141C01335A1E90
:10B2200016702B42F6D1032C2BD9FF250D402A0294
:10B2300015432A0415430F2C15D9271C103F3F092D
:10B240001E1C3A011036B6181A1C15605560956020
:10B25000D5601032B242F8D101373F010F22DB191D
:10B260001440032C0DD9271FBF08BA001E1DB618A5
:10B270001A1C20C2B242FCD10137BF000322DB19E5
:10B280001440002C05D01C19C9B219700133A34217
:10B29000FBD1F0BD141C031CC5E7C04608B5034B29
:10B2A000002B02D0024800F091F808BD0000000019
:10B2B000DDB30100F0B55F4656464D464446F0B456
:10B2C000404B85B01B68029001934933FF330393D1
:10B2D0000F1C0198A421490042589046002A4AD0E8
:10B2E0000398814641464E68741E41D44546A300EA
:10B2F0008835ED18C620C42301365B004000B60037
:10B300009B4682464644C344C24408E02B1C80331B
:10B310001B68BB4205D0043D043E013C28D3002FEE
:10B32000F4D141464A683368013AA2422CD0002247
:10B330003260002BEFD04046594640680122096830
:10B34000A240009011421DD05046006810421DD10D
:10B3500002982968984741464968009A9142B8D1B5
:10B360004A4612684245B4D1043D043E013CD6D25F
:10B37000154A002A0DD105B03CBC90469946A2461C
:10B38000AB46F0BD9847E6E74C60D2E7286898479F
:10B39000E1E743465B684046002B0DD10368002B74
:10B3A0000ED049460B6005F09DFC4B461A6890464E
:10B3B0004146002996D1DEE70368C1469846F7E783
:10B3C0000023FAE7383A0200E50C020008B5011C38
:10B3D00000220020002300F019F808BD38B5094B01
:10B3E000094DED1AAD1009D0013DAC00E41800E0A4
:10B3F000013D23689847043C002DF9D108F014FB67
:10B4000038BDC0465C25002060250020F0B54F46C1
:10B410004646C0B498462B4BA4251B686D005C596A
:10B4200083B0061C0F1C91460193002C44D0656824
:10B430001F2D1ADD244B002B02D1012040421CE0BD
:10B44000C820400005F044FC041EF6D000254560ED
:10B45000A42301985B00C05801992060CC50C423FC
:10B460005B00E550C6235B00E550002E0AD16B1C43
:10B470000235AD00636000202F5103B00CBC904634
:10B480009946F0BDAB00E318882248469850C42086
:10B490004000221810680121A9400843106084224E
:10B4A000520040469850022EE1D1C6225200A31805
:10B4B000186801431960DAE71C1C4D34FF345C51F5
:10B4C000B5E7C046383A0200D10C0200FEE7C0469C
:10B4D00038B5074C051C0749201C02F0EBFE281C60
:10B4E00000F0A8FE011C201C02F0FAFE38BDC04688
:10B4F000C4270020503A020038B5074C051C074904
:10B50000201C02F0D7FE281C00F094FE011C201C19
:10B5100002F0E6FE38BDC046C42700206B3A0200A8
:10B5200038B50B4C0B49051C201C02F0C3FE281C2F
:10B5300000F080FE011C201C02F0D2FE064C201CF4
:10B5400001F0EAF9002802D0201C01F0EEF938BD24
:10B55000C4270020893A0200BC250020F0B58FB036
:10B5600008AC00211722201CFFF74AFE3F4D281C83
:10B5700001F0CEF9061C281C01F0CCF9311C021C8C
:10B58000201C05F0B9FB2379E7780393A37965794B
:10B590000493A378049A05936678237836021E43B1
:10B5A000059B019600930398291C3B1C02F046FE64
:10B5B000E3792F490693247A07942E4C201C02F03D
:10B5C0008FFE391C0A22201C02F0E9FE2A4F201CA3
:10B5D000391C02F073FE059B201C9A00274BD158A2
:10B5E00002F06CFE391C201C02F068FE311C0A229D
:10B5F000201C02F0C4FE201C214902F05FFE0399CA
:10B600000A22201C02F0CBFE1E4E201C311C02F030
:10B6100055FE291C0A22201C02F0C1FE311C201CF0
:10B6200002F04CFE04990A22201C02F0BCFE201CF1
:10B63000154902F043FE069B201C9A00134BD1587B
:10B6400002F04EFE201C124902F038FE0A22079931
:10B65000201C02F0A4FE201C0E4902F041FE201C1A
:10B660000D4902F03DFE0FB0F0BDC046BC250020E4
:10B67000B53A0200C4270020D04A0200B4240020BA
:10B68000D33A0200D63A0200D83A0200E824002059
:10B69000EA3A0200F63A0200FF3A0200F0B593B02F
:10B6A0000D9318AB1B880E1C119319AB19884369B5
:10B6B000041C9D780292D8785A78A37C0A95022BB4
:10B6C0000AD0032B03D0012B09D1731A06E0029F85
:10B6D0005310FB1A1DB202954B10F31A1EB2CE4244
:10B6E00000D5E3E0E31DDB7F9E4200DDDEE0029F4C
:10B6F000D74200D5DAE0231C0833DB7F9F4200DD10
:10B70000D4E0013AD210FD10013283000D9FD2B275
:10B7100004331095002509920E9305970695059D13
:10B720000D9FEB1B119D9BB2AB4200D3BEE0059F6A
:10B730000A9D3B78AB4200D2B4E05B1B6769DBB289
:10B740009B00FB181A7959799879DB790C97079344
:10B75000FF2A07D1FF2905D1069F079DEB19DBB210
:10B7600006939FE0231C0833DB7F029D9D42F3DCA0
:10B77000069F079DBB199BB20B931BB2EB42EBD408
:10B78000E51DED7FAB42E7DC029F07231F400890D9
:10B790000497002803D1099D079F7D4308950E9DBE
:10B7A000120249198A1892B200270F920397039F39
:10B7B000089DBBB2AB42CFD20C9D0F9F0999EB19EC
:10B7C000039F381CDD5D03F0F1FA0B99E31DDB7F6D
:10B7D0000F1803980999019303F03EFB109A019BFF
:10B7E00051185943BFB2791809B2002956DB238D8D
:10B7F000994253DA3FB2002F50DB019887424DDA6D
:10B80000E37C012B0BD0002B11D0022B17D1A068A9
:10B81000049F431818782A1CBA4042400EE0A268E0
:10B82000049F531818782A1CBA40024306E0A06807
:10B83000049F43181A78281CB84082431A70E31DED
:10B84000DB7F228DD21A914226DAE27C012A0DD0CA
:10B85000002A15D0022A1FD1A068049FCB18082205
:10B86000D21BC31815411A78554014E0A068049FF4
:10B87000CB180822D21BC31815411A7815430AE0C9
:10B88000A068049FCB180822C318D21B15411A7850
:10B89000AA431A7000E01D7003F0FEF8039D013505
:10B8A000039584E7059F0137059738E713B0F0BD8E
:10B8B000F0B5406900248678231C013A0C4D92B201
:10B8C000AA420FD08D5CAF1BBF00C719FF79DB19EF
:10B8D0009BB20A2DF1D11D1CA34200D2251CACB293
:10B8E0000023EAE7181CA34200D2201C80B2F0BD5E
:10B8F000FFFF000008B50021028D8068FFF780FC83
:10B9000008BD000043B20C4A002B02DB0023137079
:10B9100010E013781070C22B0CD0C32B06D0822BF2
:10B9200007D1AC3843425841C00103E0C02318435B
:10B9300000E000207047C04680250020F8B5068B47
:10B94000041C0D1C002E3DD00D293BD0428B838B57
:10B95000C18BB242B6418B42894176424942002EA8
:10B9600010D0002910D0036A281C9E18FFF7CAFFC8
:10B970003070638B013363830A2D23D1A38B013392
:10B98000A3831FE0002901D1013BA383002399B2C7
:10B9900091420FD2206AC75C01330A2FF7D10131DF
:10B9A00089B2002906D0521A92B26283411805F07A
:10B9B000A3F902E0002E00D166832368201C1B68D7
:10B9C000291C98470120F8BDF8B50789051C7E1C85
:10B9D000B6B2301C05F07CF9041E01D1286818E0CD
:10B9E000281C321C211C002302F0FDFF261C002510
:10B9F000331B9BB2BB4209D23078FFF783FF00288C
:10BA000002D06B1C60559DB20136F1E700236355EF
:10BA1000201CF8BDF0B58BB004924269051C527829
:10BA2000059107A8191C039202F07CFF07A8FFF7F5
:10BA3000CBFF061C07A802F0EDFEAB7C0027032B12
:10BA40000FD13B1CF25D002A07D00A3A51424A410D
:10BA50009B1801379BB2BFB2F4E7039F5F437F108F
:10BA6000BFB2301C144905F073FA049B041CDF1BA1
:10BA7000BFB2002C1AD0201C05F04EFA80B2049000
:10BA8000211C049A281CFFF713FF049B3AB2009371
:10BA90000190231C281C0599FFF700FE0020064991
:10BAA00005F056FA039A041CBF18E1E7301C05F0B4
:10BAB00019F90BB0F0BDC046CD49020038B5041CE1
:10BAC0000F202056002807DB012103F063F80F2028
:10BAD0002056012103F07CF8207C012103F05AF864
:10BAE000607C012103F056F80220012103F052F896
:10BAF0000120011C03F04EF8207C002103F068F8BF
:10BB00000121607C03F064F8144D281C00F046FB12
:10BB1000134B281C19685A689B6800F05BFB0F20C8
:10BB20002056002817DB012103F034F80F200121F3
:10BB3000205603F04DF8052002F092FF0F2000215F
:10BB4000205603F045F80A2002F08AFF0F20205605
:10BB5000012103F03DF8012038BDC0467C270020BC
:10BB60006427002038B5041C0D1C007C002103F064
:10BB70002FF8607C002103F02BF8291C034800F00B
:10BB80002FFB607C012103F023F838BD7C270020C7
:10BB900010B5AE21041CFFF7E5FF201C8D21FFF737
:10BBA000E1FF201C1021FFF7DDFF10BD10B5A12122
:10BBB000041CFFF7D7FF201CC821FFF7D3FF10BDDF
:10BBC00010B5AE21041CFFF7CDFF201CD521FFF7D7
:10BBD000C9FF201C8021FFF7C5FF201CA821FFF70B
:10BBE000C1FF231C0833D97F201C0139C9B2FFF7DC
:10BBF000B9FF201CD321FFF7B5FF201C0021FFF760
:10BC0000B1FF201C4021FFF7ADFF201C8D21FFF765
:10BC1000A9FF201C1421FFF7A5FF201C2021FFF7FE
:10BC2000A1FF201C0021FFF79DFF201CA121FFF791
:10BC300099FF201CC821FFF795FF201CDA21FFF790
:10BC400091FF201C1221FFF78DFF201C8121FFF79F
:10BC500089FF201CCF21FFF785FF201CD921FFF78A
:10BC600081FF201C1F21FFF77DFF201CDB21FFF738
:10BC700079FF201C4021FFF775FF201CA421FFF74E
:10BC800071FF201CA621FFF76DFF201C0221FFF78A
:10BC900069FF201CAF21FFF765FF10BDF7B50193C9
:10BCA000051C0F1C007C0121161C02F091FF687C12
:10BCB000002102F08DFF341C019AB3189C4206DA71
:10BCC000395D0548013400F08BFAA4B2F4E7687CD2
:10BCD000012102F07DFFF7BD7C27002010B5212156
:10BCE000041CFFF73FFF201C0021FFF73BFFE31D73
:10BCF000D97F201C0139C9B2FFF734FF201C222153
:10BD0000FFF730FF201C0021FFF72CFF231C083316
:10BD1000D97F201CC9080139C9B2FFF723FFA168E8
:10BD2000238D201C0022FFF7B9FF10BD38B5041C7D
:10BD30000025231C0833DB7FDB089D4219D2B0218C
:10BD40002943201CFFF70EFF201C0021FFF70AFFEC
:10BD5000201C1221FFF706FFE31DDB7F201C1A1CAD
:10BD60006A43A1680135FFF799FFEDB202F094FE36
:10BD7000DFE738BD07B5831DDA7F002A05D1FF2133
:10BD800000920B1CFFF7AAFF05E00022FF210092A2
:10BD90000B1CFFF7CBFF07BD10B5041CFFF7AAFD76
:10BDA000201CFFF7E7FF10BD38B5C31DDA7F402127
:10BDB000002391425B41821DD3770B49041CFFF79E
:10BDC0007DFE051E01D100250BE0208D04F080FFD3
:10BDD000A0600028F7D0201CFFF7F2FE201CFFF720
:10BDE000DBFF281C38BDC04660AE0A0010B58D21AF
:10BDF000041CFFF7B7FE201C1421FFF7B3FE201C24
:10BE0000AF21FFF7AFFE201CFFF7B4FF10BD00000D
:10BE100008B5024800F089FD08BDC046BC250020D9
:10BE2000F0B589B002F0CEF92A4D041C281CFFF7AA
:10BE300061FD05A8284902F034FD00210A1C05AB6C
:10BE4000281CFFF7E7FD05A802F0E4FC201C02F027
:10BE500023F9071C201C02F027F9061C201C02F005
:10BE60002BF93A1C331C00901C4902A805F020F85D
:10BE700002A905A802F015FD05AB00210A22281C25
:10BE8000FFF7C8FD05A802F0C5FC201C02F0ECF885
:10BE9000071C201C02F0F0F8061C201C02F0F4F82D
:10BEA0003A1C331C00900E4902A805F001F802A9C3
:10BEB00005A802F0F6FC0021142205AB281CFFF7B0
:10BEC000A9FD05A802F0A6FC281CFFF753FF09B046
:10BED000F0BDC04690250020253B02002B3B020010
:10BEE0003A3B020070B50720002102F053FE022108
:10BEF000042002F04FFE2D4802F04AF92C4C2D4947
:10BF0000201C802600F0B9FA7600201C2A4900F097
:10BF100036FC311C201C00F037FC201C274900F0A7
:10BF2000AFFA274D201C291D00F0AAFA201C002181
:10BF3000244A00F0BDFA201C0121234A00F0B8FA7F
:10BF4000201C0321214A00F0B3FA0021281C204ABA
:10BF500000F0F4FC201C00F0CDFA1E4C4025E31D3F
:10BF6000DD77231C08332022DA772685201CFFF793
:10BF70001BFF201CFFF71AFE0023A374164BA02200
:10BF80006361164BD205D058802189020143D150FC
:10BF9000134A8021C12309069B00D150114B102167
:10BFA000DD67114B1A690A431A6170BD2337575B6D
:10BFB000E8250020493B0200543B02008425002074
:10BFC000BC250020D1B40100F9B4010021B5010065
:10BFD0005DB5010090250020003C02001C07000018
:10BFE0000060004004E100E000ED00E010B5154AFB
:10BFF000BE2300215B00D150134AC0235B004021C7
:10C00000D15002F00DFD114C2368C01A104B98421C
:10C0100009D91048FFF7BCFD20BF0E48FFF7E6FE28
:10C0200002F0FEFC2060FFF7F3FE042002F0E6FDC4
:10C03000002801D1FFF7ECFEFFF7F2FE40BF20BF62
:10C04000D5E7C0460060004000E100E08C250020FC
:10C05000983A00009025002038B580221C4B12062B
:10C060001A600221002219719A601A4B0121D974B9
:10C07000194910205961591DC8771849184D196080
:10C080001E215A609A741A835A839A83DA831A6239
:10C09000D9731A74FF211D225A74281C0B1C0A1C08
:10C0A00000F07CFB0F4C281C221C0F4902F0EFFD16
:10C0B0000E490F4800F05DFC0E4D0F49281C12225E
:10C0C00000F00AFC281C0D49221C02F0E0FD38BDDE
:10C0D0006427002090250020003C0200483A02001E
:10C0E000E82500208020002001C701005F3B0200FE
:10C0F00084250020BC250020643B0200B5C8010057
:10C1000038B504AC257800240473A14205D10A484F
:10C1100023210A4A0A4B04F09BFD01600949920061
:10C1200052589B0002715B588371AB005B5884606E
:10C1300043710223C37138BDE8460200AB460200DA
:10C14000354702004C490200037B002B04D14373A6
:10C150008373036101230373704700001FB50191CE
:10C160000168A020C0000024D2B20C50012A07D0E0
:10C17000A24203D0032A05D1042202E0022200E0F9
:10C1800006221343034A8B50034B019ACA500123E2
:10C190000B501FBD540500002405000010B5041C01
:10C1A000FFF7D2FF2368A179A122D20099506179CB
:10C1B000064A201C99502179A222D2009950044BA2
:10C1C00019685A689B68FFF7C9FF10BD0C0500008D
:10C1D000702700201FB5FFF7C1FF05B000BD0000AC
:10C1E0000368074A99501A1CFC32D1680029FAD01A
:10C1F000A321C90058580023C0B2D3607047C0467D
:10C200001C05000007B5084B8022D2051A600022E9
:10C210009A6002221A7105480092054903220123FF
:10C22000FFF76EFF07BDC046702700207C27002067
:10C230000030004010B5034C0430211C00F0AAFB74
:10C24000201C10BD9027002008B50430062204F001
:10C2500053FD08BD08B5043000210622FEF7D0FFCB
:10C2600008BD10B5041C0160FFF7F4FF201C10BDD1
:10C2700008B5C06803681B6A984708BD08B4024B3C
:10C280009C46043808BC604771C2010008B5C0680C
:10C2900003685B6A984708BD08B4024B9C460438A3
:10C2A00008BC60478DC2010008B5C06803689B6A7E
:10C2B000984708BD08B4024B9C46043808BC604748
:10C2C000A9C2010008B5C0680368DB6A984708BDC9
:10C2D00008B4024B9C46043808BC6047C5C2010044
:10C2E00008B5C06803681B6B984708BD08B4024BCB
:10C2F0009C46083808BC6047E1C2010008B5C06828
:10C3000003685B6B984708BD08B4024B9C4608382D
:10C3100008BC6047FDC2010008B5C06803689B6B9C
:10C32000984708BD08B4024B9C46083808BC6047D3
:10C3300019C3010010B5C0680468E46BA04710BDC4
:10C3400008B4024B9C46083808BC604735C301005E
:10C3500008B5C06803681B6C984708BD08B4024B59
:10C360009C46083808BC604751C3010008B5C06846
:10C3700003685B6C984708BD08B4024B9C460838BC
:10C3800008BC60476DC3010008B5C06803689B6CBA
:10C39000984708BD08B4024B9C46083808BC604763
:10C3A00089C3010008B5C0680368DB6C984708BD05
:10C3B00008B4024B9C46083808BC6047A5C301007E
:10C3C00008B5031CFC339B6F002B02D06130FF309B
:10C3D000984708BD08B5031CFC33DB6F002B02D067
:10C3E0006130FF30984708BD70B51468B0261D1C39
:10C3F000760004AB81191B78101C646A2A1CA047C4
:10C4000070BD70477047704738B5B0235B00C418E3
:10C41000051C111C201CFC35FFF716FF2B6F002B91
:10C4200001D0201C984738BD031CFC33B0225B6F41
:10C43000520010B58418002B01D0201C9847201CF6
:10C44000FFF708FF10BD10B5B02464000119101CDF
:10C450001A1C01F003FD10BD08B5011C6131101C50
:10C460001A1C02AB1B78FF3100F06EFA08BD08B54C
:10C47000C06803681B69984708BD9C30016070471D
:10C4800070B5041CA8342368051C0E1C002B05D1B4
:10C4900000F00AFA800004F01BFC2060281CAC307D
:10C4A000027823689200D65003780133037070BD80
:10C4B000102903D25A31890040184260704710B5E4
:10C4C000041C01F02DFD800004F002FC231CA033AD
:10C4D0001860103303600C3343602433836086227A
:10C4E000631CFF335200C360A3180361A434052307
:10C4F000237010BDF0B5031CAFB00EA90026903319
:10C500000E701968041CB1421CD008A800F086FA0D
:10C5100008A800F0B4FA022282427641152216AB36
:10C52000961B051C18705E7008A800F0A6FA1A2663
:10C53000011C68462A1C761B5A3004F0DDFBF6B25B
:10C54000012501E01C260D1C231C8C3319680029D1
:10C5500025D008A800F062FA08A800F090FA431C61
:10C56000071CB3421BDA1F23191C694316AA8854FF
:10C57000191C0223984200D90623694351184B70B5
:10C5800008A8079100F079FA011C07983A1C0230BC
:10C5900004F0B2FB023E0135F61BEDB2F6B2231CED
:10C5A00094331968002915D01A79002A12D0022E66
:10C5B00010D9531CB34201DB023EF2B21F20684384
:10C5C00016ABC2541818FF234370023004F094FBDA
:10C5D0000135EDB2231C9C331E68002E19D0301C8F
:10C5E00004F09AFCC0B21D2802D80EAA107002E016
:10C5F0001D230EA90B700EAB1A78002382425B41FB
:10C6000039216944083368460B703A30311C04F014
:10C6100073FB271CA0373A68002A02D1201CFFF7C1
:10C620004EFF00230793231CA4331B7807999942DC
:10C6300014DA07993A688B009E58301C01F057FBBA
:10C640002E4B984207D1002E01D0301F00E0301C45
:10C65000211D01F011FC079B0133E3E70022231C9D
:10C660000792AC331B780799994217DA231C079974
:10C67000A8331B688A00D658301C01F038FB1F4BCA
:10C68000984208D1002E01D0301F00E0301C211C40
:10C69000083100F06CF9079A0132E0E7002B0BD06B
:10C6A00096225200201CA118FFF7EAFE9C235B0093
:10C6B000201CE118FFF7E4FE0EA90B78E068591E74
:10C6C0008B410EA9026800913F68211C0197A4319B
:10C6D0000978DBB20291211CA83109680391211C61
:10C6E000AC31097804919668291C16AAB047E06815
:10C6F00003681B6D98472FB0F0BDC04603280000AB
:10C70000194B10B51A1C083202601A1C703288339B
:10C71000041C83604260FFF7AAFE231CA83318683C
:10C72000002801D004F0DEFA231CA033186800288A
:10C7300001D004F0D7FA9A235B00E01800F0BAF8B1
:10C7400084235B00E01801F02FFB201CDC3001F09B
:10C750002BFB201CB83001F027FB201C103000F010
:10C7600077FE201C10BDC0466847020010B5041CAF
:10C77000FFF7C6FF201C02F0DDF9201C10BD08B534
:10C78000B83001F004FB08BD07B56B46D98006330D
:10C79000DC30191C022201F01EFB07BD354BF7B53A
:10C7A0001A1C083202601A1C88338360031C703222
:10C7B0001033041C4260181C009301F06DFA231C16
:10C7C00000258C335D609D601D731D615D611D766C
:10C7D000DD611D60201C04331D772749B03000F057
:10C7E000D0F8231CB8330193181C244902221323C8
:10C7F00001F008FB0222201C131C2149DC3001F04F
:10C8000001FB204F601C391CFF3000F0BAF81E4EAF
:10C8100084235B00311CE0182022042301F0F2FA8B
:10C8200096235B00391CE01800F0A3F89A235B0004
:10C83000311CE018202200F04FF8B0235B00E01814
:10C84000211CFFF70EFD009B1022E360B6235B0066
:10C85000E018291CFEF7D4FC01980C4901F097FA66
:10C86000291C201CFFF790FFE068211C01F04AFB07
:10C87000201CFEBD684702004347020048470200F3
:10C880004D47020052470200574702005C47020032
:10C8900010B5041C01F026FA024B201C1A78013254
:10C8A0001A7010BDA2270020014B18787047C046AF
:10C8B000A2270020014B0833036070471048020094
:10C8C00010B5044B041C0833036002F033F9201C3C
:10C8D00010BDC0461048020038B5041C151C0430B9
:10C8E000094AFFF7D5FF094B002108332360201CBC
:10C8F000E31CA572E1720422D97728306162FEF749
:10C900007FFC201C38BDC0460328000010480200F0
:10C910000C307047C07A7047011C406A08B5002887
:10C9200002D003681B68984708BD011C406A08B51F
:10C93000002802D003685B68984708BD042902D22A
:10C940000A3189000A50704738B5041CC3720D1CA7
:10C950000C30111C1A1C04F0CFF9E31C0122DA7709
:10C96000A36A002B02D0281C211C984738BD4162C5
:10C97000704710B5A022041C9201FFF789FF201C0C
:10C9800010BD10B5A022041C920101F0BDFA201CBC
:10C9900010BD0000F0B51E4C8BB0051C0E1C01A88C
:10C9A000211C01F07EFF211C04A801F07AFF052460
:10C9B0002B5D0F2B03D801A8164902F007F81022AF
:10C9C000295D07A801F0D1FF07A904A801F0B4FF71
:10C9D00007A801F01FFF01A804A901F0F0FF671EDE
:10C9E000002C06D001A80C4901F0F0FF3C1C7B1C78
:10C9F000DED1311C1222002301A801F0F4FF04A8AB
:10CA000001F008FF01A801F005FF0BB0F0BDC04622
:10CA1000CE49020046470200D63A0200F0B5002394
:10CA200085B0041C03AE21600375081C0F1C337015
:10CA30007370B37004F070FA451E002D1ADB237D6D
:10CA400001930F2B16D87B5D2D2B01D101350FE003
:10CA50007A19013A1278301C32700021102273705A
:10CA600004F052FB019AA3181871237D013323753A
:10CA7000023DE2E7201C05B0F0BD04307047007DA8
:10CA8000704771DF704772DF704773DF704775DF83
:10CA9000704776DF704777DF704778DF70477ADF5F
:10CAA00070477CDF70477EDF70477FDF704786DF2F
:10CAB000704790DF704792DF704796DF704798DFCE
:10CAC000704799DF7047A0DF7047A2DF7047A3DF90
:10CAD0007047A4DF7047A6DF7047A9DF704760DFAB
:10CAE000704761DF704762DF704763DF704753DF75
:10CAF000704710DF704711DF704760300078431EC9
:10CB00009841C0B2704760300078431E9841C0B26F
:10CB1000704730B5031C7133021C18780023834220
:10CB200013DA556F1C012C1925688D420BD1E3894E
:10CB3000002083420AD0237B990707D578321378E7
:10CB40000120584002E00133E9E7002030BD38B54C
:10CB5000031C71331A780023934219DA456F1C01C4
:10CB60002C1925688D4211D1E1890022914210D003
:10CB7000237B9C070DD5031C783301241C70808F08
:10CB8000FFF79BFF42424241D2B202E00133E3E7AA
:10CB90000022101C38BD30B5021C7132031C107805
:10CBA000002282421BDA5D6F14012C1925688D4228
:10CBB00013D1E2890020824212D0227B110704D5D2
:10CBC00078331B78012058400AE0550708D56033B8
:10CBD0001878431E9841C0B202E00132E1E700201C
:10CBE00030BDF0B587B0041C019371300678002089
:10CBF000B0422FDA636F05015D192F688F4227D18C
:10CC0000EF890020874226D0297B0C25294222D09B
:10CC1000251C60352E7886421DD00907CB0F191CC4
:10CC20004B424B41013303A90B70019B8A60CB80BF
:10CC3000231C78330122013E1A7048704F8088808F
:10CC40002E70A08FFFF73BFF43425841C0B202E075
:10CC50000130CDE7002007B0F0BD30B5031C7133C3
:10CC60001C780023A34212DA456F1A01AA1815682E
:10CC70008D420AD1D3890020834209D0107B302312
:10CC80001840431E9841C0B202E00133EAE7002099
:10CC900030BD30B5021C7132031C85B01078002203
:10CCA00082422BDA5D6F14012C1925688D4223D145
:10CCB000E5890020854222D0227B30210A421ED005
:10CCC000D106C90F4A42514101316A46518001A93A
:10CCD000023201248A601A1C48708880783202204F
:10CCE0002D190C704D80C8801470988FFFF7E7FEE7
:10CCF00043425841C0B202E00132D1E7002005B002
:10CD000030BD08B503681B6C984708BD30B5021CE0
:10CD10007132031C85B010780022824226DA5D6FE2
:10CD200014012C1925688D421ED1E5890020854209
:10CD30001DD0217B3022114219D06A4601A95080B2
:10CD4000023201248A601A1C4870888078320220DE
:10CD50002D190C704D80C8801470988FFFF7AFFEAE
:10CD600043425841C0B202E00132D6E7002005B08C
:10CD700030BD08B50B1C273314DB0B1C1D3313DB34
:10CD80000B1C133312DB0B1C0F3311DB0B1C0B338F
:10CD900010DBCB1D10DBCB1C10DBC817401AC00FFB
:10CDA00080000DE028200AE01E2008E0142006E0A4
:10CDB000102004E00C2002E0082000E004204042A3
:10CDC00040B2FFF768FE43425841C0B208BD08B503
:10CDD0001321808FFFF75DFE08BD37B5041C684640
:10CDE000FFF74FFE2069002805D00268211CD56995
:10CDF0006A460132A84737BD37B50023041C01A895
:10CE00000193FFF774FE019803F006FE094B084AF0
:10CE100003F014F803F072FE021C2069002803D00E
:10CE200001680D6A211CA84737BDC046C046C046F0
:10CE3000000000000000D03F704710B586B0041C11
:10CE4000182268460021FEF7DBF9A27A00239A42F5
:10CE500005D1231C34331B785A42534102336A46AE
:10CE60001370A0880A21000101F0A0FF6B46188210
:10CE70006846FFF70AFE06B010BDF0B5031C61332B
:10CE80001A7891B0051C0C1C0023934260DA142719
:10CE90005F43696ECF193968A14209D1201C00F0A7
:10CEA000D9FF0122104253D07B68002B02D14FE002
:10CEB0000133EAE72A1C333201921678291C321C0E
:10CEC000143108A803F018FF2368201C1B69984739
:10CED00004303618F6B21F2E3AD8786800F005FFF5
:10CEE000011C02A8FFF79AFD236801991B69201C09
:10CEF0000F78984708AA019B0330D0551F7802A8E5
:10CF0000D31916225A70FFF7B8FD023708AA011C80
:10CF1000D019022203F0F0FE019B08A91F782368B4
:10CF20000437DB68201CCF199847236801901B69E0
:10CF3000201C98470199021C381C03F0DDFE0022DA
:10CF400008A8311C131CFFF79EFDAC63012000E014
:10CF5000002011B0F0BDF0B5D7B069468E230FAEFA
:10CF60005B001231041C301C0B80FFF7BAFD031E5E
:10CF700000D04FE23288302A00D139E111D8112A8D
:10CF800059D004D8012A21D0102A25D042E2142AEF
:10CF900000D1C3E0192A00D1CBE0132A00D039E236
:10CFA0009DE0382A00D1EBE106D8322A00D16CE1AD
:10CFB000362A00D1CAE12DE2502A00D1CCE0522A13
:10CFC00000D10FE1392A00D024E2F9E16034327A4D
:10CFD0002378D31823701DE2B08807ADA087291CE1
:10CFE000FFF781FD2A78231C206960331A7000281E
:10CFF00005D003686A461B68211C45329847E288C1
:10D00000052A0FD92389C82109018B420AD86B80D0
:10D010000023AB80C8235B002A80EB80A08F291CF3
:10D02000FFF735FD231C68331B78002B00D1F1E19D
:10D03000A08F012113E101225242A287221C6032FB
:10D040001070061C231C61331B789E4216DA1425CF
:10D050007543606E002745192F746F74286800F0BF
:10D06000FBFEB84208D02069B84205D003682A68A0
:10D07000211C5D693B1CA8470136E3E720690028B5
:10D0800003D00368211C5B6898470025231C683384
:10D090001B789D420ADA0C206843E16E04220818CE
:10D0A00008300021FEF7ACF80135EFE70023221C21
:10D0B00071321278934209DA626F19015018002216
:10D0C0000273656F01336918CA81F0E7231C783356
:10D0D00000221A702368201C9B6998479AE1E06837
:10D0E000002800D190E100F008FE002800D08BE17C
:10D0F00005AA01233020D37003431370E06D07238A
:10D10000002153701023937011710B910C910D91AC
:10D11000079008910991A08F07AB79E1E16D328A00
:10D120004D8AA08F954200D0191C1A1CFFF7BFFC36
:10D1300070E1327A002A00D06CE1E068002804D067
:10D14000211C40311C2300F0EDFD2069002800D196
:10D1500060E103689B68F6E0F78802900397231C60
:10D1600061331B78029F9F4200DB53E1029F14252D
:10D170007D43606E039F45192B89BB4209D120690D
:10D18000002800D146E1317C03682A6800911D69BE
:10D190002BE1AB89039FBB4220D16B464F331F78F5
:10D1A000013B1B783F021F4301233A1CDF401A401A
:10D1B0001F402A746F74002A00D01F1C286800F0DA
:10D1C0004BFE87420AD02069002800D122E1036883
:10D1D0002A68211C5D693B1CA8471BE1029D0135A3
:10D1E0000295BCE7A08F191C1A1CFFF776FC11E111
:10D1F000F288002A03D0221C683212783BE0B589FD
:10D20000171C02956D464E35029A974220DA231C70
:10D2100068331A780023934217DA0C205843E16EE2
:10D220000818A91E09788C4681798C450BD1291FD5
:10D2300009888C4681888C4505D1291C0422083038
:10D2400003F05AFD01E00133E5E701370835DBE77C
:10D25000029DA08FEF00F719B989013189B2002230
:10D26000FFF727FCD6E00C215943E66E71180889B8
:10D27000002803D101339342F5DBCBE04889002835
:10D28000F8D0221C7032137055E0F288201C7030E8
:10D29000002A3BD103780C214B43E56E101CEB18A0
:10D2A0009B680793B68913AB02960299884228DAE5
:10D2B0000021221C7132127891421CDA676F0A0138
:10D2C000BA18271C70373F780C26774356687F5969
:10D2D000B7420ED11F78BC46977ABC4509D19F1E34
:10D2E0003F88BC461789BC4503D19F781773DF88F8
:10D2F000D7810131DDE7D98807AA118001300A33CF
:10D30000D3E7A08F07A9FFF7D6FB83E00378221CA1
:10D310006832013315780C225A4301E001330C3294
:10D32000AB420BDAE66EB1180E89002EF6D04E89AC
:10D33000002EF3D00370A08F0831E4E720690028A5
:10D3400068D00368DB68211C984763E0221C7832B0
:10D350001070F1880622FF32914202D1E768002F57
:10D3600019D1231C7133B089197800238B4251DA0B
:10D37000656F1A01AA18D58985422ED00133F5E7C9
:10D38000221C78321070F1880622FF32914241D17E
:10D39000E668002E3ED007A90B71180E0122DBB201
:10D3A00010431A4370239A4330231A4307234B70C8
:10D3B0001023C8700A708B70A08FFFF774FB29E0F0
:10D3C000B37BB589022B03D1A08F291CFFF779FB12
:10D3D000231C71331978002313E02069002819D029
:10D3E000317C0368126800919D696B46211C4E33A5
:10D3F000A8470FE0676F1A01BA18D089A842ECD08D
:10D4000001338B42F6DB05E00022A08F8521131C3F
:10D41000FFF74BFB57B0F0BD10B5041CFFF76BFBDB
:10D42000606F002801D003F05DFCE06E002801D0A1
:10D4300003F058FC606E002801D003F053FC221C5E
:10D440000023613271341370D371237010BD00005A
:10D4500010B5054B041C08330360FFF7DDFF201CEB
:10D4600000F02EFD201C10BD2848020010B5041C41
:10D47000FFF7EEFF201C01F05DFB201C10BD00003B
:10D4800013B51288041C6846028041806A46211C3C
:10D4900002480193FFF71DFB16BDC046FFFF0000C9
:10D4A000F0B5F1B0029378AB1B78071C06937AAB0A
:10D4B0001B780391141CC54904220CA8059303F0A2
:10D4C0001BFC00210CA8FFF714FB11ADC04B14226C
:10D4D000281C002101260D93FDF792FE0A230DA9B9
:10D4E000281C2B802E732E72FFF7F9FA0FA8282321
:10D4F000038050234380C823B3400025C380858028
:10D50000FFF7CDFA281CFFF7C6FA02233B75062366
:10D51000BB7503983B1C333303227E751A70A842F7
:10D5200003D102990B1E41D01DE0002CF9D0039AC3
:10D530009542F6DA3E1C3336307822783B180132B9
:10D540001A7562780230C0B25A7530703818227875
:10D55000A11C143003F0D0FB227833780135D318A6
:10D5600033701F34E3E7769B002B1ED000251C1C74
:10D570002B1C02998D4219DA267828A8721CC254F5
:10D580006178C2180233DBB25170C018A11C321C82
:10D59000019303F0B1FB01983A1C01213618343293
:10D5A000F3B211706D181F34E3E7769B3A1C3332E7
:10D5B000381C1178143028AAFFF765FA0020FFF70D
:10D5C0006CFA0024069B9C420EDA779AA300D0588E
:10D5D00000F08DFB7F4B984204D13B1C61331A78DD
:10D5E00001321A700134EDE73A1C613213781420CD
:10D5F000033BDBB21370584303F06AFB002309AA14
:10D6000078661380029307930393029A069B9A42CB
:10D6100000DBF4E1029877998300CC58201C00F0DD
:10D6200064FB011C1BA8FFF7F9F91BA8FFF725FAFB
:10D63000051C1BA8FFF723FA022808D16A7829786D
:10D6400012020EAB0A431A8001229A7013E030AE28
:10D65000291C1022301C03F04FFB6A7B2B7B12022B
:10D660001A4369460EAB1A80301C00233A3173739B
:10D670003373FFF73AFA201C00F039FBA0239B011B
:10D68000984212D1201C00F030FB534903F032FCC9
:10D69000002800D1AFE1201C00F027FB4F4903F028
:10D6A00029FC002800D1A6E15DE2201C00F01FFB50
:10D6B000484B984200D031E1002C00D0043C251D9D
:10D6C000281C00F012FB464903F014FC002811D17D
:10D6D00030AD11232B702368201CDB68984723682A
:10D6E000061C1B69201C9847311C021C281CFFF7D4
:10D6F000D8F980E1281C00F0F8FA3A4903F0FAFB67
:10D70000002807D12368201CDB6898470088FFF7B2
:10D71000C4F970E1281C00F0E8FA334903F0EAFB91
:10D72000002800D167E1201C00F094FB2368051C51
:10D730001B69201C98476B46039AD88414235A43CC
:10D74000786E04928318079A002121AE5A601C60FB
:10D75000197459741C22301CFDF752FD01222B1C38
:10D760009343337030231D4208D0101C10210AABA4
:10D7700008430222187058709A70736100220BAB34
:10D780001A809A703222154210D01978F8680F2248
:10D790009143002804D0012001430A40202103E0E6
:10D7A000012001430A4010210A431A700C231D4234
:10D7B00024D0F9680F220BAB002917D0597801202B
:10D7C000914301430A40202116E0C0462048020050
:10D7D0008020002003280000434702005247020037
:10D7E000484702004D470200574702005978012080
:10D7F000914301430A4010210A435A700BADAB78A4
:10D800000622934302221343AB702368201C9B69BA
:10D810009847A97801231A1C994382430B1C134390
:10D82000029AAB70013201920198069988420ADA95
:10D83000019877998300CD58281C00F058FAA4234A
:10D840009B01984221D016AD00211422281CFDF71F
:10D85000D7FC0EAB16936A460BAB6B60D38C201CC7
:10D860002B81236800269B6898470499A881786ECD
:10D870002A1C43180833301C21A92E61FFF725F913
:10D880006A46D38CB3422ED143E0002D00D0043D34
:10D890002E1D301C00F029FAC74903F02BFB00288D
:10D8A00010D12B68281C9B68984722902B68281C55
:10D8B000DB6898472B6821AE3081DB68281C9847CD
:10D8C00070810CE0301C00F010FABC4903F012FB30
:10D8D000002804D12B68281C9B6898472490019B42
:10D8E00001330193A0E76A46263213889E4208DA84
:10D8F0002368311C5B69201C984730ABF05401361B
:10D90000F1E7786E049943181889002130ABFFF7CE
:10D91000B7FD039B0133DBB203936CE0201C00F0E6
:10D92000E6F9A4239B01984265D1002C00D0043C69
:10D93000251D281C00F0D9F99F4903F0DBFA0028C7
:10D9400059D0281C00F0D1F99D4903F0D3FA0028E2
:10D9500051D0281C00F0C9F99A4903F0CBFA0028ED
:10D9600049D0281C00F0C1F9944903F0C3FA0028FB
:10D9700041D02368201CDB6898470BAB061C18803D
:10D980000021142221A8FDF73BFC16AD00232B80BB
:10D990000223AB702368201CDB689847331A5E1E95
:10D9A000B341AE7801229643F8681E43AE700F2350
:10D9B0002978002800D1DDE099430A431340202252
:10D9C00013432B700EAB21936A4616AB2293938DB3
:10D9D00021AD2B812368201CDB6898470026A88195
:10D9E000291C301C09AA2E61FFF771F86846838D47
:10D9F000B34200D0C3E002990131029105E60598D7
:10DA0000002803D0031C023BDBB205930024059AD7
:10DA1000944219DA7999A300CD58281C00F067F9CF
:10DA2000A0239B01984202D13B1C683307E0281CCD
:10DA300000F05DF9644B984204D13B1C71331A78B5
:10DA400001321A700134E2E73B1C68331B780C206A
:10DA5000584303F03DF93B1CF866713318780025F4
:10DA6000000103F035F90195786702950395059952
:10DA70008D426BDA7998AB00C458201C00F035F960
:10DA8000011C30A8FEF7CAFF30A8FEF7F6FF061CFF
:10DA900030A8FEF7F4FF022808D17278317812021C
:10DAA0001BAB0A431A8001229A7014E0311C102229
:10DAB00021A803F021F9727B337B12021A439121D2
:10DAC0001BAB1A80694400230B7024AA21A82339B8
:10DAD0001370FFF70AF8201C00F009F9A0239B013E
:10DAE000984214D1029B0C205843F96E0B181C600D
:10DAF0001B9A00215A60FB6E042218180830FDF7AB
:10DB00007FFB029B03940133DBB202931CE0201CD9
:10DB100000F0EDF82C4B984216D10198796F030173
:10DB2000CA18002C00D0043C0398146050601B9964
:10DB300091607A6FD11800220A73786FC318DA8166
:10DB4000019B0133DBB20193013590E7F8680028AF
:10DB500003D000F0D2F8002825D13B68381C9B691F
:10DB6000984771B0F0BD01200EA909AAFEF7ABFFDE
:10DB7000079440E799430A431340102220E70BAA79
:10DB800013889E4208DA2368311C1B69201C9847C1
:10DB900030ABF0540136F2E709AB1888002130AB06
:10DBA000FFF76EFC27E7391CF868403100221C2380
:10DBB00000F0C7F8D1E7C04690480200954802003F
:10DBC0009A4802009F48020003280000F0B5002296
:10DBD00089B00123041C0D1C00920193231C6133A6
:10DBE0001B78009A9A4254DA009A14275743636EBE
:10DBF000DF193A68AA4248D1A36B9D4204D1236839
:10DC0000201C5B6A291C98472B68281C1B699847B5
:10DC10002B686A46D081DB68281C3E8998476A4693
:10DC2000031C0021301C0E3204AEFFF729FC301C0F
:10DC300000211022FDF7E4FA3B8933800E236B4468
:10DC4000B3603B7C002B0ED0221C60321378002B7B
:10DC500008D0013B13700123B370A08F311CFEF775
:10DC60003AFF00E001937B7C002B0ED0221C603237
:10DC70001378002B08D0013B13700223B370A08FE0
:10DC8000311CFEF728FF00E00193009A0132009258
:10DC9000A4E7019809B0F0BD10B5041C00F022F90A
:10DCA0000F4B002108332360231C33331970597044
:10DCB00001235B42A387201C231C60334030A163F7
:10DCC0001C221970597061661972E16619745974D1
:10DCD00061671976E065FDF793FA201C10BDC04618
:10DCE0002848020001608280704700687047808881
:10DCF000704729DF704728DF7047036818680130D4
:10DD0000431E9841C0B2704780235B0510B5196966
:10DD1000006800F0FDFF041C201CFFF7ECFF112839
:10DD2000FAD010BD70B51D1C041C0E1CFFF7ECFFD3
:10DD3000AD082068311C2A1CFFF7DBFF1128F8D042
:10DD400070BD10B5006800229A4203D284588C50EE
:10DD50000432F9E710BD807A7047C0687047007CD4
:10DD6000704700207047C368585C704770B50D1C41
:10DD70000168041CCE69111C1A1CB0470123A3744E
:10DD8000A369002B02D0281C211C984770BD38B510
:10DD9000051C081C0C1C03F0BFF82B68C2B2DB6921
:10DDA000281C211C984738BD054B10B50833041CAE
:10DDB0000360C068002801D002F094FF201C10BD51
:10DDC000A848020010B5041CFFF7EEFF201C00F06D
:10DDD000B1FE201C10BD10B5041C807A131C8242B9
:10DDE00000D9031CDAB22374E06802F085FF606991
:10DDF000002804D00368211C1B68984700E001201C
:10DE000010BD000070B5041C161C04300F4A1D1C08
:10DE100000F07AF80E4B083323602B1C142D00D928
:10DE200014230021201CA372E16021746674A17484
:10DE3000E174616118300C22FDF7E2F9002D03D086
:10DE4000A07A02F045FFE060201C70BD03280000AE
:10DE5000A8480200407C7047C07C704708B5031C8E
:10DE6000C2745042424107329200D258002A02D076
:10DE7000081C191C904708BD4161704770477047E6
:10DE8000704700207047704770470020704700209F
:10DE90007047002070470020704700207047002026
:10DEA0007047002070470020704700207047002016
:10DEB00070470020704700207047704770477047D8
:10DEC000014B083303607047D848020010B5044B7B
:10DED000041C0833036000F02DFE201C10BDC0465A
:10DEE000D8480200064B0122083303606423838074
:10DEF0000023C38003818272C36003617047C04600
:10DF0000D84802000161704710B5041CFFF7EAFE13
:10DF1000024B201C1A7801321A7010BDA327002072
:10DF2000014B18787047C046A3270020F7B50C1C9A
:10DF30003C21051C00F030FF281C21703C2100F022
:10DF4000E7FE3C21051C00F027FF281C61703C21E6
:10DF500000F0DEFE1821051C00F01EFF281CA17039
:10DF6000182100F0D5FE07210090043000F014FFC6
:10DF700000260131E170371C314BFD1803232B4083
:10DF800001930ED1281C642100F066FF00290BD1FB
:10DF9000C821281C490000F05FFF4B4259416E31F7
:10DFA00000E06E21FF3101E0B7214900009B7618A7
:10DFB0009E4202D80137FFB2DEE7019BA771002B1A
:10DFC0000ED1281C642100F047FF00290BD1C82185
:10DFD000281C490000F040FF4B4259416E3100E0DF
:10DFE0006E21FF3101E0B7214900009B761A281C01
:10DFF00064219E1B00F030FF0F1CC821281C490023
:10E0000000F02AFF0023D8B201280AD1019D1C226A
:10E01000002D08D11D22002F05D14A424A411C3251
:10E0200001E0084A9A5C964204D30133B61A0C2BDD
:10E03000E9D1181C0136013026716071F7BDC04668
:10E04000B20700004049020038B5054D041C2B689A
:10E05000984203D00349FFF769FF2C6038BDC046E2
:10E06000A4270020A827002008B5FFF7EDFF014BEB
:10E07000987808BDA827002008B5FFF7E5FF014BF9
:10E08000587808BDA827002008B5FFF7DDFF014B31
:10E09000187808BDA827002008B5FFF7D5FF014B69
:10E0A000187908BDA827002008B5FFF7CDFF014B60
:10E0B000587908BDA827002008B5FFF7C5FF024B17
:10E0C0009879024BC01808BDA8270020B2070000AD
:10E0D000F7B5294C8679294F7443051C284ABB188B
:10E0E000B34212DABA070ED1381C642100F0B4FE34
:10E0F000002906D1C821381C490000F0ADFE0029D6
:10E1000001D1204BE4180137E8E71C4A6B79B618B7
:10E11000301C6421019300F09FFE0F1CC821301CAD
:10E12000490000F099FE0123019A934212DA022B72
:10E1300007D1B20705D1002F01D1002901D1124A20
:10E1400005E0124A0F48D218013A12784243A41847
:10E150000133E9E7AB78E120000158436B783C22BA
:10E160005343C0182B78074AC0182B79013B5343FF
:10E17000C0180019FEBDC0468033E101B20700009F
:10E180004EF8FFFF80510100803B2600404902000D
:10E1900008B5074B02221860064B1B68C018064BD7
:10E1A0001860064B1A7000F03BFC054B186008BD68
:10E1B000B027002008250020C0270020B427002019
:10E1C000BC27002038B500F02BFC154A1549136810
:10E1D000154CC01A884207D9216801312160FA2103
:10E1E00089005B181360EEE7104D23682A689A4295
:10E1F00013D80F4B1B68002B0FD09847002802D074
:10E20000FFF7C6FF09E00B4B21681B685B182B600A
:10E21000094B1A78511E8A411A70206838BDC046D1
:10E22000BC270020E7030000B0270020C027002003
:10E23000B827002008250020B427002070B5059CD1
:10E24000061C251C1E35632C01DD074825180748D0
:10E25000049C857103718670417002704471FFF7F0
:10E2600037FFFFF795FF70BD4EF8FFFFA82700208E
:10E27000F7B58A18061C0D1C01920C1C019B671B2C
:10E280009C4207D0336821781B68301C98470134C2
:10E290000028F3D1381CFEBD38B5051C0C1C081E27
:10E2A00007D002F039FE2B68021C5B68281C211C79
:10E2B000984738BD08B5FFF7EFFF08BD08B5FFF771
:10E2C000EBFF08BD08B503681B68984708BD000050
:10E2D00008B50249FFF7E0FF08BDC046CC4902007F
:10E2E00038B5041CFFF7D8FF051C201CFFF7F0FF12
:10E2F000281838BDF0B58DB0161C0BAB002201906C
:10E300000C1C1A70012E00D80A266D462B35201CD5
:10E31000311C00F041FD201CCFB2311C00F0F8FC94
:10E32000291C041C092F01D8303700E03737FFB211
:10E330002F70013D002CEAD10198FFF7ADFF0DB021
:10E34000F0BDF8B5041C0D1C161E04D10368C9B23B
:10E350001B68984712E00A2A0DD100290ADA2D21FC
:10E36000FFF7B0FF6942071C321C201CFFF7C2FFF9
:10E37000C01903E000E0D2B2FFF7BCFFF8BD08B55A
:10E38000FFF7DFFF08BD08B5002A04D10368C9B252
:10E390001B68984702E0D2B2FFF7ACFF08BD08B592
:10E3A000FFF7F1FF08BD38B5041CFFF7ECFF051CB3
:10E3B000201CFFF78DFF281838BD000003210A48F4
:10E3C00002680A430260094802680A430260084979
:10E3D000084A094B9B1A03DD043BC858D050FBDCAC
:10E3E00000F012F8FCF79CFE2405004054050040A4
:10E3F000884D02008020002064250020FEE7FEE713
:10E40000FEE7FEE7FEE7FEE72C4A10B51378012B86
:10E4100012D12B4B1B6818070ED12A4BF0211B6819
:10E42000E024181C0840234204D1274B1B680B42F0
:10E4300002D127E03028F8D01378012B0DD12049E4
:10E440000968080709D11F490868F02108404028D9
:10E4500003D11D48006808421CD01378012B2BD132
:10E46000174B1B68190727D1164BF0221B68134066
:10E47000A02B04D1144B1B6813421DD110E0D02BEC
:10E480001AD1F7E71149124B19608021114B09028B
:10E490001960D1E7C1218020C900C0054350DCE7E5
:10E4A0000D4B1A68012A04D00C4A1A601A68012A16
:10E4B000FCD10B4BC0221A6010BDC046E00F00F02B
:10E4C000E40F00F0E80F00F0EC0F00F0DFFF07C0F2
:10E4D00004050040186C004000EC064075930000F5
:10E4E00014EC06400120704708B503681322DB696D
:10E4F000984708BD704700000269054BD150131CB6
:10E50000FC33196A0029FAD0002201201A627047F0
:10E510001C05000010B5031C5C33197801221F2371
:10E520001940131C8B40191C0E4B0424D967036936
:10E53000C22189005C505A60DA60A0220021D2001A
:10E5400099500949012252425A50084914305A50F0
:10E55000A121C9005A50A221C9005A5000F076FBEF
:10E5600010BDC04604E100E00C05000014050000E9
:10E5700008B5143000F07CFB08BD08B5143000F07D
:10E580007DFB08BD08B5143000F064FB08BD000039
:10E5900070B5031C5E331C780269614BD450031CB8
:10E5A0005D331C785F4BD450031C61331C785E4B89
:10E5B000012C0CD1051C5F352E78A225ED0056519B
:10E5C000051C60352E78A125ED00565100E0002491
:10E5D000D4509623DB00994238D996231B019942E7
:10E5E00037D996235B01994236D996239B019942EC
:10E5F00034D9E1239B01994232D99623DB01994218
:10E6000031D9E123DB0199422FD996231B0299428C
:10E610002DD9E1231B0299422BD996235B02994203
:10E6200029D9E1235B02994227D9E1239B02994230
:10E6300025D93E4B994224D9E123DB02994223D9C3
:10E64000E1231B03994221D8394B21E09E23DB02B1
:10E650001EE09D231B031BE0364B19E0364B17E0F1
:10E66000EC239B0314E0354B12E0354B10E0354BA7
:10E670000EE0354B0CE0354B0AE0354B08E0354BEE
:10E6800006E08023DB0403E0334B01E080235B05DD
:10E69000324900245350A0210423C9005350111CB7
:10E6A000FC31CC600C62C1240121A40011605C30FB
:10E6B0009160135100781F22C3B21A409140C024C8
:10E6C000274A640040B21151141C002813DA0F22AB
:10E6D0001A40083A234892080325920012182B404A
:10E6E000AB40D069FF259D40A843C0259D402B1C11
:10E6F0000343D36111E01A4A800880008018032682
:10E70000C02292003340B3408558FF269E40B54357
:10E71000C0269E40331C2B438350216070BDC046F1
:10E720000C050000140500006C05000090D00300EB
:10E7300000D0BE0E00B013000050270000A04E0015
:10E7400000F0750000509D0000F0EB0000903A01D1
:10E7500000E0D70100B0AF0300705F0724050000A0
:10E7600000E100E000ED00E0F7B5009308AB1B7896
:10E7700000250193FA239B0083600F4B041C083390
:10E780004560036014300F1C161C00F049FA231C6E
:10E7900000995C3327611E70084B8A00D158221CF7
:10E7A0005D3211700199201C8A00D258231C5E33FF
:10E7B000DD701A70FEBDC046E04902004C490200FF
:10E7C000036910B51A1CFC32D268041C002A0AD056
:10E7D000A322D20099581430C9B200F02CFA236950
:10E7E0000022FC33DA6010BD08B50248FFF7E8FFED
:10E7F00008BDC046C427002007B512230093034874
:10E80000034902221123FFF7AFFF07BDC4270020F1
:10E810000020004010B5041C006802F063FA201CC0
:10E8200010BD10B5041C0068002801D002F05AFA8F
:10E8300000232360A360636010BD38B5041C0D1C69
:10E840000068013102F016FB002801D021C401202C
:10E8500038BD036810B5041C002B02D043688B42FE
:10E8600009D2201CFFF7E9FF002805D0A368002B80
:10E8700001D122681370012010BD70B50E1C111C4F
:10E88000041C151CFFF7E5FF002803D1201CFFF72F
:10E89000C8FF04E0A5602068311C02F035FB201C95
:10E8A00070BD38B50023041C0D1C036043608360F9
:10E8B000994207D0081C02F02FFB291C021C201CC7
:10E8C000FFF7DBFF201C38BD38B5051C00680C1CA9
:10E8D00000280CD06A688B689A4206D3096802F057
:10E8E00013FBA2680023AA600AE002F0FBF9236888
:10E8F00062682B60A3686A60AB600023236063607A
:10E90000A36038BD10B50B1C041E8C4208D00968EA
:10E91000002903D09A68FFF7B0FF01E0FFF781FFFD
:10E92000201C10BD10B50023041C036043608360ED
:10E93000FFF7E8FF201C10BD10B5041E8C4201D06B
:10E94000FFF7C2FF201C10BD38B5041C0D1E08D0F7
:10E95000081C02F0E1FA291C021C201CFFF78DFFA5
:10E9600001E0FFF75EFF201C38BD1FB50023041C2B
:10E97000036043608360081C01A900F0C2F8201CFA
:10E9800001A9FFF7E1FF201C04B010BDF8B5041C7D
:10E990000F1C866801D100250FE00125002A0CD04C
:10E9A0009619311CFFF755FF0028F4D02268A368A0
:10E9B000391CD01802F0A8FAA660281CF8BD08B5CA
:10E9C0000B1C9A680968FFF7E1FF08BD38B5051C04
:10E9D0000C1C081E06D002F09FFA211C021C281CE9
:10E9E000FFF7D4FF38BD38B50D1C002A14D000291C
:10E9F00012D081688B4202D300232B700CE0541E8E
:10EA0000C91A8C4200D90C1C0168221CC918281C88
:10EA100002F089FA00232B5538BD000000000000E9
:10EA200008B50B4B0B490C4A1B688A581806190A83
:10EA30001043064B044A00F059FA4904C00B08433E
:10EA400008BDC046C046C046E80300000000000004
:10EA5000282800200010014004050000C046C046E0
:10EA600038B5041E09D0FFF7DBFF051C00F014F8D1
:10EA7000FFF7D6FF401BA042F8D338BD044B00225D
:10EA80009A60044B1A680132D2B21A607047C046CD
:10EA9000FC100140282800207047F0B58DB0061CFE
:10EAA0000D1C019228D0131C023B222B26D803AC4C
:10EAB0000094002E12D0301C019900F06DF9301C2A
:10EAC0000F1C019900F024F9631C061C092F01DCBE
:10EAD000303700E0573727701C1CEAE7009A944251
:10EAE000E9D02B1C009A944204D9013C22781A7078
:10EAF0000133F7E700221A70281C00E000200DB057
:10EB0000F0BD08B5FFF7C9FF08BD704708B500F0B4
:10EB100015F8FFF7FAFF0120FFF7A2FFFDF7E2F972
:10EB2000FDF764FA024B002BFAD000E000BFF7E7D4
:10EB30000000000008B502F0D5F808BD124BC42251
:10EB40009200985811490140C02000020143995099
:10EB50008022C021920249005A501A60A3218023CA
:10EB60000122DB05C9005A509A60A121084B002000
:10EB7000C90058500221C12088401950D120884036
:10EB800019501A607047C04600E100E0FF00FFFF27
:10EB90000010014000B51E2816D80C4B8000C2584A
:10EBA000032911D8C132A023FF32081CDB059200D3
:10EBB00000F0A4F802080406002104E00C2102E0A1
:10EBC000042100E00321995000BDC0464C490200D9
:10EBD0001E280ED8074B8000C2580120A023904069
:10EBE000DB05021C002901D1034901E0A121C90074
:10EBF0005A5070474C4902000C050000031C0020CD
:10EC00001E2B0AD8A222A021D200C9058858034A87
:10EC10009B009B58D8400123184070474C49020084
:10EC200010B500214022041CFCF7EAFA0023201C46
:10EC30002364636410BD026C10B53F23541C234051
:10EC4000446CA34201D08154036410BD00230364CB
:10EC500043647047436C026C934206D0C25C3F2110
:10EC600001330B404364101C01E001204042704717
:10EC7000026C436CD01A00D540307047436C026C74
:10EC8000934201D0C05C01E001204042704708B5CA
:10EC9000031C081C191C01F0F9FF08BD0B1C011C0A
:10ECA000021C30B519430220002900D130BD80215B
:10ECB00009068B4216D00D4904205C180C498C4281
:10ECC000F4D90C4D5C198C42F0D90B4C5900490811
:10ECD0000320A142EAD9074C0020A142E6D15042CC
:10ECE0005041E3E7002AE1D0EFE7C0460000F0FF23
:10ECF000FFFFDF7F0000F07FFFFF0F0002B47146CF
:10ED000049084900095C49008E4402BC7047C0466E
:10ED1000002934D00123002210B488422CD30124CE
:10ED20002407A14204D2814202D209011B01F8E763
:10ED3000E400A14204D2814202D249005B00F8E71C
:10ED4000884201D3401A1A434C08A04202D3001B48
:10ED50005C0822438C08A04202D3001B9C0822437B
:10ED6000CC08A04202D3001BDC082243002803D0B9
:10ED70001B0901D00909E3E7101C10BC70470028EB
:10ED800001D00020C04307B4024802A140180290FD
:10ED900003BDC046D90000000029F0D003B5FFF73D
:10EDA000B9FF0EBC4243891A1847C046002941D01A
:10EDB00010B4041C4C40A44601230022002900D5B5
:10EDC0004942002800D5404288422CD30124240720
:10EDD000A14204D2814202D209011B01F8E7E400FA
:10EDE000A14204D2814202D249005B00F8E7884286
:10EDF00001D3401A1A434C08A04202D3001B5C08FE
:10EE000022438C08A04202D3001B9C082243CC085A
:10EE1000A04202D3001BDC082243002803D01B09B8
:10EE200001D00909E3E7101C6446002C00D54042DC
:10EE300010BC7047002806D003DB0020C043400808
:10EE400001E08020000607B4024802A140180290A9
:10EE500003BDC046190000000029EBD003B5FFF741
:10EE6000A7FF0EBC4243891A1847C0467047C046E8
:10EE70008446101C62468C46191C634600E0C0465E
:10EE80001FB500F05DFF002801D40021C8421FBD5E
:10EE900010B500F08DFE4042013010BD10B500F0FD
:10EEA0004FFF002801DB002010BD012010BDC0462F
:10EEB00010B500F045FF002801DD002010BD012045
:10EEC00010BDC04610B500F0BDFE002801DC0020DA
:10EED00010BD012010BDC04610B500F0B3FE0028E3
:10EEE00001DA002010BD012010BDC0469C4603047D
:10EEF000F0B51B0C17043F0C150C1E1C041C000C59
:10EF00007E436B4347434543FB18300C1818874238
:10EF100002D980235B02ED18030CED1863465C43B5
:10EF20004A433604360CA118000480194919F0BD73
:10EF3000F8B55F46564644464D46F0B40C034D00C6
:10EF4000CE0F610A440F2143C400180380465800C5
:10EF5000400D8246D80F84464046400A530F034373
:10EF6000D0006D0D371C83465246664500D19DE0AA
:10EF7000AF1A002F00DC03E1002A38D1184300D07B
:10EF8000E4E0630709D00F232340042B05D0231DA1
:10EF9000A342A441644209191C1C080200D478E071
:10EFA000CE4B6A1C9A4200D105E1CD4BE4081940D2
:10EFB00048075205490204430B0B520D371C002031
:10EFC00000211B03201C1C0B0B0D1B05C54D2343EF
:10EFD000520552081D4015436D006D08FF07291C9E
:10EFE00039433CBC90469946A246AB46F8BDBB4867
:10EFF0008542C6D0802000040343382F00DDECE0BA
:10F000001F2F00DD20E12020C01B1A1C81468240FA
:10F010005846F8400243944658464A469040421E9D
:10F020009041FB40624602431F1CA21A9442A44135
:10F030006442C91B091B141C0B02A2D549024F0ACA
:10F04000002F00D1C4E0381C01F0E4FD021C083A96
:10F050001F2A00DDB7E02821091A201C9740C8406C
:10F0600007439440954200DDA9E0551B691C1F2908
:10F0700000DDD8E01F22551B3B1C221CAB40CA40C0
:10F08000AC40651EAC411343CF401C43391C0025E6
:10F0900077E74807E4086A05C908520D371C04439E
:10F0A0008E4B9D4248D009030B0B88E7AA1A944661
:10F0B000002A00DC98E05046002853D0874885425B
:10F0C00000D15EE78020000403436246382A00DD59
:10F0D000FDE01F2A00DD4BE120226046101A1A1CB9
:10F0E00082408246914658466246D0404A46024394
:10F0F0009046584652469040421E90414246024336
:10F100006046C3401219A242A44164425918091929
:10F11000141C080200D434E7704B01359D4200D125
:10F1200024E16F4B60081940012323401C1C044359
:10F13000CB071C43490824E70B1C234300D1C7E13C
:10F1400080231B030B431B031B0B38E7013F002FDE
:10F1500064D15846221A9442A4416442C91A091B38
:10F16000141C69E75846184300D10AE701225242AD
:10F1700094446046002800D0C5E058460219C2E712
:10F18000002F72D1681C4005400D012800DCDEE034
:10F190005A46A21A9442BF41C81A7F42C71B38027E
:10F1A00000D488E05A46141BA3459241591A524292
:10F1B0008F1A664644E7371C00230024FFE64849BF
:10F1C000AD1A3940DDE6271C28388740002449E77E
:10F1D000201C01F01FFD203038E75A461A43531E09
:10F1E0009A41D2B2002720E7002A00D0DDE0681C57
:10F1F0004205520D012A00DC8EE0384DA84200D1B4
:10F20000B3E05D462A19A242A44164425918091983
:10F21000CC07520814434908051CB2E62F48854222
:10F2200000D0EAE6ADE62B1C1F3B3A1CDA40131C6B
:10F2300020296DD03F22551BAF403C43601E8441C6
:10F240001C43002100259CE6381C20381A1CC240B3
:10F25000101C202F5ED04022D71BBB405A461A43B9
:10F26000531E9A4102430027DFE6002D3CD01B4D80
:10F27000AA4500D194E080252D047F422943382FF0
:10F2800000DDADE01F2F00DD2CE12025ED1B081C6B
:10F29000261CA840FE40AC400643651EAC413443EA
:10F2A000F9405D462C1BA34592415B1A5242991AC4
:10F2B00055466646C0E6131C3B43141C002B00D089
:10F2C000BEE600270022002500210024E8E65A4679
:10F2D0001A43531E9A41D2B2002313E7FF070000DE
:10F2E000FFFF7FFFFFFF0F800D1C254358D0FF431A
:10F2F000002F51D1041BA3459241591A5242891A39
:10F300005546664698E69648854200D0DDE638E6E2
:10F31000002792E70023A1E7081C2043002D00D01E
:10F32000C0E0002800D1FBE05846184300D128E691
:10F3300058460219A242A441644259180919141CE2
:10F340000A0200D41DE6874B0125194019E6081C66
:10F350002043002D39D100286DD15946194300D1E1
:10F36000BDE0191C5C4666460BE6051C2A1CABE793
:10F37000604620381A1CC24060469146202800D1C1
:10F38000ABE04022121A93405A461A43531E9A4148
:10F390004B461A430023B5E6714DAA4500D06EE7EF
:10F3A000191C5C4655466646EBE5002D1ED10D1C2A
:10F3B000254373D0D543002D6DD15C445C4592410B
:10F3C0005918524289185546A3E6002849D1594692
:10F3D000194300D196E0191C5C466646604DD0E5A5
:10F3E0000C43611E8C41E4B200215AE75C4DAA45F2
:10F3F00054D05542802210040143382D00DD85E0B1
:10F400001F2D00DD95E02022501B0A1C84468240FF
:10F41000201CE8400243904662469440601E8441AE
:10F4200042461443E9405C445C459241CB18524249
:10F43000991855466DE65846184300D1A1E558463F
:10F44000271ABC429241C81A5242801A02026AD557
:10F450005846041BA3459241591A5242891A6646DE
:10F460008FE55846184336D04807E4080443802007
:10F47000C9080003014208D0DD08054205D15946FC
:10F48000CA085C071443291C6646630FC900194368
:10F49000E400334D75E5324A9245AED1191C5C4605
:10F4A00055466EE5002837D05846184313D08025BE
:10F4B0004807E408C9082D0304432942E5D0D808C9
:10F4C0002842E2D15D46EA085C071443011CDCE7F0
:10F4D0000023002473E5224D53E5002354E7002761
:10F4E0000022F1E63D1C203D0A1CEA40151C202F9D
:10F4F00031D04026F71BB9400C43611E8C412C4390
:10F500000021CEE6164A0027151CDDE60C43611EDD
:10F510008C41E4B2002186E7191C5C46104D30E5B1
:10F52000191C5C462DE5031C3B43D8D0011C3C1C38
:10F5300027E52020404240190A1CC2409046202D59
:10F540000BD04020451BA9400C43611E8C41454611
:10F550002C43002167E70021CEE70021F4E7C046F5
:10F56000FF070000FFFF7FFFF0B5564644465F46A9
:10F570004D46F0B41F1C0B031B0B98464B0087B085
:10F58000041C81465B0DC80F161C9A460090002B88
:10F5900051D06A4B9A4531D08022414652030A43EA
:10F5A000630FD2001A43664B90460025E200914655
:10F5B0009A44002402953B031B0B9B46FD0F7B00E6
:10F5C000311C5B0D019560D05C4A934254D0802180
:10F5D000584649030143720FC9001143584A8B46EC
:10F5E0009B18F1000020009A04436A4003920F2CFC
:10F5F00000D9ADE0534EA4003459A7464046044319
:10F600006ED1002102250824884689460295D2E75A
:10F61000009C0298C34649460194022864D00328FE
:10F6200000D1ABE2012800D038E2019A0024024068
:10F630000025A14660E0434623434AD040460028C7
:10F6400000D1C0E101F0E6FA031E272B00DDB3E193
:10F6500028210D1A211C083B4246E9409A400D1C06
:10F660001543221C9A40A8469146374B00251B1A89
:10F670009A46002402959EE75A4616430320002E20
:10F68000B1D1B34600210220ADE75A4632431BD028
:10F690005B46002B00D18AE1584601F0BBFA2728CF
:10F6A00000DD7DE12822171A011C321C08395B4657
:10F6B000FA408B40171C1F43331C8B40BB46191C60
:10F6C000214B1B1A00208EE70027BB46002101209A
:10F6D00089E70020012504248046814602956AE7D7
:10F6E00003250C24029566E7019C0394039D0122E7
:10F6F0002A400024114DA146002000212403260B9E
:10F700000C0D2405114B34432D0523402B435B0086
:10F710005B08D207191C4846114307B03CBC904611
:10F720009946A246AB46F0BD0022802424039146B0
:10F73000024DE1E700240025A146DDE7FF070000B8
:10F7400001FCFFFF104A02000DFCFFFFFFFF0F80CE
:10F750005546ED1A0495D84500D953E100D14EE144
:10F76000049C0025013C4E4604944746A946584651
:10F7700003020C0E1C430902250C23041B0C0091F0
:10F78000381C291C0193FFF7C3FA019983464143B2
:10F79000381C8A46291CFFF7FFFA330C0904194369
:10F7A0008A450CD95B460919013B8C4200D947E1D7
:10F7B0008A4500D844E10222524293440919534633
:10F7C000CB1A181C291C9846FFF7A2FA071C0198AF
:10F7D000291C784382464046FFF7DEFA36040B04C4
:10F7E000360C33439A4509D91B197A1E9C4200D91D
:10F7F00024E19A4500D821E1023F1B195E463204FC
:10F800001743380CBB46009E009F51463F0C320404
:10F810005B1A5946BA46120C0F043F0C90465146EB
:10F820007A434F434146414356467043CF19160C25
:10F83000BE19B14202D980277F02C019310C1204CF
:10F840003604120C4018B618834200D2C4E000D12E
:10F85000BEE0191A4846861BB145BF417F42CF1B07
:10F86000A74200D113E1291C381CFFF751FA019976
:10F8700002904143381C8946291CFFF78DFA330C4E
:10F880000904194389450CD9029B0919013B8C4293
:10F8900000D9FFE0894500D8FCE0029F0919023F2A
:10F8A00002974F46CF1B381C291C0597FFF730FAEB
:10F8B000071C0198291C784381460598FFF76CFACC
:10F8C00036040904360C0E43B14509D936197B1E9E
:10F8D000B44200D9E0E0B14500D8DDE0023F36197E
:10F8E000029D4946761A290439430B0457460A0CEF
:10F8F0001B0C40464546584355437B437A43EB181F
:10F90000070CDB199D4202D980256D0252191D0C8E
:10F9100000041B04000C52191B18964235D300D169
:10F92000FCE001231943049E994FF519002D00DCDA
:10F93000A1E0480709D00F230B40042B05D00B1D75
:10F940008B42894149428B44191C5A46D20107D542
:10F95000904B5C46049E80271C40FF00A346F5198F
:10F960008D4B9D427ADD039C0122224000248B4D69
:10F97000A146C1E680242403474627424CD13C439C
:10F980002403240B009A854DB6E63619481EB4426E
:10F990005ED9011C9642C4D1009E9E42C1D1C2E7ED
:10F9A000031C283B311C99408B46002188E6301C03
:10F9B00001F030F9203072E6283B211C99400022EA
:10F9C0008846914651E6201C01F024F920303BE6A0
:10F9D0000021B14500D33DE7009F5A46B944B945DF
:10F9E000BF417F423F19FB18013A9C421ED2984208
:10F9F00000D97EE000D1B5E0191A93462AE789457F
:10FA000000D8ADE64846464642467708D307460842
:10FA1000C0071E438146AAE65846204212D104433D
:10FA200024032A1C240B89465C4D65E6A342E3D1DE
:10FA3000009F4F45DBD9211A93460BE7171CDDE6E3
:10FA40009B46BCE63C432403240B009A534D53E6EB
:10FA5000B24259D800D18AE0011C62E75F46C9086A
:10FA60007B07039E0B437C026D0501229946240B04
:10FA70006D0D324040E64A4B049FDB1B382B10DDF6
:10FA8000039C0122224000240025A14634E60121E6
:10FA9000494248E7029304E71F1C21E7019C0394B5
:10FAA00041E71F2B40DC3F48049F0C1C3A18584686
:10FAB0009140DC40904020430A1C511E8A41011CA9
:10FAC00011435A46DA40131C480709D00F220A4056
:10FAD000042A05D00A1D8A42894149425B18111C3B
:10FAE0001A0234D5039C0122224000240125A1469C
:10FAF00002E6009F02214942B9448B44B94589413D
:10FB000049420919CB18A4E6009D881E6900A94244
:10FB1000AD416D422C19361900913AE7002B00D007
:10FB200033E70024009437E71F4A049C5D46121B0C
:10FB3000D5402A1C202B1FD01C4E5F46A3199F4086
:10FB40003B1C19434B1E994111430023BCE75A0744
:10FB5000C9080A43039F91465B0201221C0B3A40ED
:10FB60000025C9E54E45C4D89346002172E6009FA2
:10FB70009F42C9D3011C0FE70023E2E7802424033E
:10FB80005F463C432403240B019A8946034DB3E5A9
:10FB9000FF030000FFFFFFFEFE070000FF0700005D
:10FBA00002FCFFFF1E040000E2FBFFFF3E0400001A
:10FBB000F0B55F4656464D464446F0B40D1C041C55
:10FBC0008046E80F814618030F03000B3F0B83B0FC
:10FBD00084461B48009749005E00DF0F490D92469E
:10FBE000760DBB4681420CD01548864210D00120CC
:10FBF000B14215D003B03CBC90469946A246AB46F4
:10FC0000F0BD009F01202743F4D10D488642EED17C
:10FC1000604602430120002AECD10120B142E9D123
:10FC2000009B6345E6D1D045E4D1D94506D00029F3
:10FC3000E0D11C43201C441EA041DBE70020D9E793
:10FC4000FF070000F0B55F4656464D464446F0B407
:10FC5000CD0FDE0FAC461D032D0BB146374E0F0303
:10FC60004C00AB465D0080463F0B640D92466D0D27
:10FC7000B44232D0314EB54235D0002C0ED138438B
:10FC800041424141081C002D0BD0002919D1CC451F
:10FC90002DD0654668420123184318E0002DF6D1A7
:10FCA000281C59460A4353425341002806D1002BD1
:10FCB000EDD0634658420123184308E00020002B92
:10FCC00005D14A46504250414042012318433CBCB2
:10FCD00090469946A246AB46F0BD3E1C0643C9D0AD
:10FCE00002204042F3E75E461643C6D0F8E7AC4236
:10FCF00007DC0BDA61464842484140420123184381
:10FD0000E5E76646704201231843E0E75F450AD8FD
:10FD10000ED000205F45DAD2654668426841404215
:10FD200001231843D3E76246504201231843CEE72C
:10FD3000D045F8D80020D045EED3C8E7FF07000033
:10FD4000F0B556464D4644465F46F0B40D1C83B0B0
:10FD5000041C0190E80F814618030F03000B3F0BB2
:10FD600084463548009749005E00DF0F490D9246F2
:10FD7000760DB846814234D02F48864236D00029CD
:10FD800018D0002E1FD1341C67463A4353425341CA
:10FD9000002C1FD00020002B05D14246504250417C
:10FDA00040420123184303B03CBC90469946A2460A
:10FDB000AB46F0BD0098044360426041041C002E35
:10FDC000E2D00028E9D1C14515D04F467842012341
:10FDD0001843E8E7002BF6D04B465842012318435E
:10FDE000E1E7009F02202743DDD1C5E767460220F7
:10FDF0001743D8D1C3E7B14204DD4A46504201233C
:10FE00001843D0E7B14207DB00986045E4D80AD038
:10FE1000009F00206745C6D24F4678427841404255
:10FE200001231843BFE7019A5245D5D8019A002013
:10FE30005245F1D3B7E7C046FF070000F0B556467C
:10FE400044465F464D46F0B41F1C0B031B0B9A46FD
:10FE50004B0087B0041C80465B0DC80F161C029334
:10FE60008146002B68D0694B0299994232D080229A
:10FE7000534652031A43D200630F1A439246644A10
:10FE8000E000891880460291002400253B031B0BEB
:10FE90009B467800FB0F321C400D039300D175E0A8
:10FEA0005A4B984269D08022594652030A43730F35
:10FEB000D2001A43564B9346C018F2000023039910
:10FEC0004E4671401C430F2C00D9A9E0514EA400AE
:10FED0003459A74653461C4300D087E00025AA4664
:10FEE000A84608240225D1E74946022D6CD0032DEF
:10FEF00000D117E2012D00D058E10D40EDB20024F1
:10FF0000A9460023A0460020002125030A0D1C0558
:10FF10002D0B1205404B2A43134023435B004C46F4
:10FF20005B08E207191C4046114307B03CBC9046F1
:10FF30009946A246AB46F0BD5346234350D05346A4
:10FF4000002B00D184E1504600F064FE031E272BF5
:10FF500000DD76E128210D1A211C083B5246E940BC
:10FF60009A400D1C1543221C9A40AA4690462B4BE2
:10FF700000241B1A0293002588E75B461E430323D7
:10FF8000002E9CD1B3460022022398E75B46334300
:10FF900021D05846002800D14EE100F03BFE272832
:10FFA00000DD42E128210F1A021C311C083A5B4691
:10FFB000F94093400F1C1F43331C9340BB461A1C4F
:10FFC000164B181A00237AE701230B4000249946A8
:10FFD000A0460E4B97E70027BB46002201236EE7A1
:10FFE000002104248A46884601254FE70C24032576
:10FFF0004CE700258024A9462403A846034B82E74A
:020000022000DC
:10000000DA46904603991D1C6FE7C046FF070000C3
:1000100001FCFFFF504A0200FFFF0F800DFCFFFFB5
:10002000029F160C381804904046070C0004000C80
:100030001204120C031C5343041C3D1C744355430F
:1000400098463B1C73436419A44644460293230C10
:1000500063449D4204D9029D802464022D190295B7
:100060001D0C039545462C041B04240C1C190594F7
:100070005C46230C051C58432404240C8446381C7D
:10008000604365435F438146CC44280C6044BB46D3
:10009000814502D980277F02BB442D04070C2D0C1B
:1000A000000440195546BC462F04E3448446280CFE
:1000B0003D0C2F1C5743B8462F1C77434243B9468B
:1000C00047463F0C9144BA46D14446434A4502D97B
:1000D00080225202B6184F463A0CB6183A044746E8
:1000E0003F043F0CB8462F1C67435D4344435843CD
:1000F00065190190380C2D184244B846AC4204D919
:10010000019880235B02C0180190039C029F201C71
:100110006044C0196045A44147466442A4462B048C
:100120003C049946240C4C44A046D8448018C2464E
:10013000E24490429241574652429146F219E245BA
:10014000BF417F424B46BC46D845BF41D4187F4291
:1001500063461F432D0C7F19B24292414C45AD417D
:1001600052426D421543019E7D19AB19E20D5B02AF
:10017000059F134342023A439A46531E9A41C30DC8
:10018000101C18436402204380465046C0010DD520
:10019000454601225646049C6B082A401A43F30741
:1001A00001341A43760804949046B246049E634F85
:1001B000F319002B61DD404640070BD00F22444667
:1001C0002240042A06D04246043242458041404241
:1001D000824490465546ED0107D5594B5646049F3B
:1001E00080201E40C000B2463B18564A934200DDB4
:1001F000EAE644465546E2086807104301226C02CD
:100200005B050A408046240B5B0D91467BE6DA468F
:1002100090461D1C69E680242403574627421CD1C2
:100220003C432403240B484B6DE6031C283B311C44
:1002300099408B460022C3E6301C00F0EBFC2030D6
:10024000ADE6283B211C994000228A4690468EE666
:10025000201C00F0DFFC203078E65846204207D111
:10026000044303992403240B89469046364B4AE6FF
:100270003C432403240B344B45E6344B049E9B1B28
:10028000382B06DD01230B4000249946A0460023AD
:1002900039E61F2B25DC049C2D4D4646601952463D
:1002A00044468640DC4082405746301C2243DF40B3
:1002B000441EA04102433B1C540709D00F201040AC
:1002C000042805D0101D9042924152429B18021CF6
:1002D0001D021AD501230B4000249946A046012394
:1002E00011E61C48049C5546001BC540281C202BC9
:1002F00016D0194E5746A21997403A1C43461A4346
:10030000531E9A4102430023D6E758075B02D208E6
:100310001C0B01230B401043994680460023F2E555
:100320000022EBE7802424035046012304431940B4
:100330002403240B8946044BE5E5C046FF03000077
:10034000FFFFFFFEFE070000FF07000002FCFFFFAB
:100350001E040000E2FBFFFF3E040000F8B55F460C
:10036000564644464D46F0B40C034D00CF0F610A8B
:10037000440F2143C4001803DE0F8046B4464646AE
:100380005800760A530F3343D600C94A6D0DBA465A
:10039000400DB346904200D1EBE062460126724028
:1003A0009446674500D1A1E02F1A002F00DC08E138
:1003B00000283BD15846184300D0E8E0600709D038
:1003C0000F232340042B05D0231DA342A4416442E4
:1003D00009191C1C0A0200D479E0B54B6A1C9A4228
:1003E00000D109E1B34BE40819404807044349022E
:1003F0005205012750460B0B520D074000200021EB
:100400001B03201C1C0B0B0D1B05AB4D234352057E
:1004100052081D4015436D006D08FF07291C394324
:100420003CBC90469946A246AB46F8BDA0488542E2
:10043000C4D0802000040343382F00DDF0E01F2FDC
:1004400000DD24E12020C01B1A1C5E468240FE40D5
:10045000324394465A468240101C421E9041FB4053
:10046000624602431F1CA21A9442A4416442C91B63
:10047000091B141C0A02A1D549024F0A002F00D102
:10048000C9E0381C00F0C6FB021C083A1F2A00DD38
:10049000BCE02821231C091A9740CB401F439440FD
:1004A000954200DDAEE0551B691C1F2900DDDDE033
:1004B0001F22551B3B1C221CAB40CA40AC40651E92
:1004C000AC411343CF401C43391C002576E7480755
:1004D000E4086A0501275646C908520D374004430F
:1004E000734B9D4249D009030B0B87E72A1A9446A8
:1004F000002A00DC9BE0002855D06D48854200D1E1
:100500005CE78020000403436046382800DD09E1F1
:100510001F2800DD50E162462020801A1E1C864004
:10052000B1465E46D6404A4632435E4686409046D5
:10053000301C421E9041424602436046C34012199D
:10054000A242A441644259180919141C080200D49B
:1005500034E7574B01359D4200D142E1554B6008CD
:100560001940012323401C1C0443CB071C434908AA
:1005700024E71E4300D014E70FE70B1C234300D1F0
:10058000CFE180231B030B431B031B0B36E7013F0B
:10059000002F66D15E46A21B9442A4416442C91A50
:1005A000091B141C66E75846184300D106E70126CC
:1005B0007642B4446046002800D0CAE05E46321954
:1005C000BEE7002F7AD1681C4005400D012800DCF1
:1005D000E3E05A46A21A9442BF41C81A7F42C71BA1
:1005E0003E0200D492E05846041BA3459241591A9A
:1005F00052428F1AE24641E7534601271F4000242A
:100600000023FBE62B49AD1A3940D7E6271C2838D2
:100610008740002444E7201C00F0FCFA203033E738
:100620005A461A43531E9A41D2B200271BE7002AAA
:1006300000D0E1E0681C4605760D012E00DC91E05B
:100640001B4DA84200D1F7E05E463219A242A441F8
:10065000644259180919CC07520814434908051C6B
:10066000ACE61348854200D0E6E6A7E62B1C1F3B0C
:100670003E1CDE40331C202970D03F22551BAF406A
:100680003C43601E84411C430021002596E6381C33
:1006900020381E1CC640301C202F61D04022D71BA2
:1006A000BB405A461A43531E9A4102430027DAE6DA
:1006B000FF070000FFFF7FFFFFFF0F80002D38D0F6
:1006C000B94DA84200D192E080252D047F422943F4
:1006D000382F00DDAAE01F2F00DD2CE12025ED1BC7
:1006E0000E1CAE40B046261CFE404246AC401643AF
:1006F000651EAC413443F9405A46141BA345924150
:100700005B1A5242991A051CE246B3E6131C3B439E
:10071000141C002B00D0B1E6002700220025002188
:100720000024DDE65A461A43531E9A41D2B20023F2
:1007300005E70D1C25435AD0FF43002F53D15A46DD
:10074000141BA3459241591A5242891A051CE246CC
:1007500090E69548854200D0D6E62FE600278FE741
:1007600000239EE7081C2043002D00D0C3E0002892
:1007700000D1F6E05846184300D11FE6584602194A
:10078000A242A441644259180919141C0A0200D457
:1007900014E6864B0125194010E6081C2043002D65
:1007A0003AD1002800D089E05946194300D1BFE072
:1007B000191C5C46E24601E6604620381A1CC2401D
:1007C0006646101C202E00D1B0E04022921B9340C0
:1007D0005A461A43531E9A4102430023AFE6724D14
:1007E00000272A1C9BE7704DA84200D070E7191C17
:1007F0005C46051CE246E1E5002D20D10D1C254399
:1008000075D0D543002D6FD15C445C459241591899
:1008100052428918051C99E6002835D159461943DA
:10082000DDD0191C5C46E2465F4DC7E50C43611EF6
:100830008C41E4B200215FE7051C021C6FE75A4DB2
:10084000A84254D05542802216043143382D00DD91
:1008500081E01F2D00DD91E02022561B0A1CB446CA
:10086000B240261CEE403243904662469440661EDB
:10087000B44142461443E9405C445C459241CB1884
:1008800052429918051C61E6584618434CD0480757
:10089000E40804438020C9080003014208D0DD08B1
:1008A000054205D15946CA085C071443291CE24693
:1008B000630FC9001943E4003B4D7FE558461843D8
:1008C00000D17BE55E46A71BBC429241C81A52424A
:1008D000801A06024CD55846041BA3459241591A6A
:1008E0005242891AE24669E52F4A9042AED1191C5C
:1008F0005C46051C62E5002836D05846184313D0E4
:1009000080254807E408C9082D0304432942CFD0B5
:10091000D8082842CCD15D46EA085C071443011C84
:10092000C6E70023002469E51F4D47E500234FE794
:1009300000270022F3E63D1C203D0E1CEE40351C36
:10094000202F2DD04026F71BB9400C43611E8C414F
:100950002C430021D0E60C43611E8C41E4B20021FF
:100960008AE7191C5C4629E5191C5C460E4D25E5F5
:10097000031C3B43DCD0011C3C1C1FE520267642B7
:1009800076190A1CF2409046202D0BD04026751B8C
:10099000A9400C43611E8C4145462C4300216BE766
:1009A0000021D2E70021F4E7FF070000FFFF7FFFEF
:1009B00070B50B1C124C09030E0B5900021C490D9B
:1009C000DD0F0020A14211DD0E4881420FDC8020A6
:1009D000400306430C48401A1F280BDD0B4A521AED
:1009E000D640321C5042002D00D1101C70BD084B67
:1009F000E818FBE7074BC240C9188E403243F1E7C5
:100A0000FE0300001D040000330400001304000076
:100A1000FFFFFF7FEDFBFFFFF8B5041E31D0C70FCE
:100A200000D04442201C00F0F5F8184D2D1A0A2879
:100A300019DD0B38844024036D05240B6D0D3A1C21
:100A40000026002000210B0D2403240B1B0523434B
:100A50000F4C2D051C402C4364006408D307211C57
:100A6000301C1943F8BD061C1536231CB3401E1C50
:100A70000B23181AC44024036D05240B6D0D3A1C7A
:100A8000DFE70022002500240026DAE71E0400002C
:100A9000FFFF0F8010B5041E28D000F0BBF8154AE8
:100AA000121A0A2815DD0B38844024035205240B42
:100AB000520D0023002000212403181C0B0D240BD1
:100AC0001B0523430C4C12051C40144364006108B1
